:1000000052C100007DC100007BC1000079C1000029
:1000100077C1000075C1000073C1000071C100000C
:100020006FC10000A2C50000CDC50000F8C50000EA
:1000300067C1000065C1000063C1000061C100002C
:100040005FC100005DC100005BC1000059C100003C
:1000500057C1000055C1000053C100000C94FA08BC
:100060004FC100000C945E0B0C94A20C49C100001F
:1000700047C1000045C1000043C1000041C100006C
:100080003FC100003DC100003BC1000039C100007C
:100090000C949E0B0C94E10C33C1000031C10000A4
:1000A0002FC100002DC100002BC1000029C100009C
:1000B00027C1000025C1000023C1000021C10000AC
:1000C0001FC100001DC100001BC100000C94DE0B0D
:1000D0000C94200D15C100000C941E0C0C945F0DA7
:1000E0000FC1000000C201000100110011000C004E
:1000F00000E100000A002500250021000096000014
:100100001900390039003600127A00001F0046003D
:10011000460044008070000022004D004D004A005F
:10012000004B00003600750075007200403800007A
:100130004A009C009C009900802500007200EC00A1
:10014000EC00E900C0120000E900DA01DA01D70191
:1001500060090000D701B603B603B303B004000082
:10016000B3036E076E076B07580200006E07DC0EC4
:10017000DC0ED80E2C010000DC0EC11DC11DBE1D01
:1001800000002100240027002A002D003000330049
:1001900001010000040107010A01000022002500FE
:1001A00028002B002E003100340002010000050160
:1001B00008010B01000020002300260029002C006C
:1001C0002F003200000100000301060109010505AE
:1001D0000505070508080808020202020A0A0808BD
:1001E00004040404010101010101010103030303EB
:1001F00003030303040707070C0C0C0C0C0C0C0C7A
:100200000202020206060606060606060B0B0B0B8A
:100210000B0B0B0B010210202008081020401020AF
:1002200040800201020108040201010204081020BA
:1002300040808040201008040201800402018040B8
:100240002010080402010804020101020408102021
:10025000408001020408102040800000090A0208C2
:100260000B0C0D0706030401000000000000000055
:10027000000000000000000000000000000000007E
:1002800000000000000011100F000000000000003E
:10029000000000000000000000000000000000005E
:1002A0000A03CE0E050311241FBECFEFD1E2DEBF3D
:1002B000CDBF00E00CBF1AE0A0E0B2E0EEE3F3E255
:1002C00000E00BBF02C007900D92A83CB107D9F720
:1002D0001BBE1EE0A8ECBAE001C01D92AF36B1070C
:1002E000E1F712E0C4EAD2E004C02297FE010E94C6
:1002F0008F11C03AD107C9F70E9404100C949311D2
:100300007FCECF92DF92EF92FF921F93CF93DF9336
:100310007C01162F6A01DC01ED91FC91A081B18175
:100320002D913C91CF0160EFF9011995D701ED9125
:10033000FC91A081B1812D913C91CF0163E4F90141
:100340001995D701ED91FC91A081B1812D913C913E
:10035000CF0169E7F9011995D701ED91FC91A081D1
:10036000B1812D913C91CF0169E0F9011995D70137
:10037000ED91FC91A081B1812D913C91CF0160E084
:10038000F9011995D701ED91FC91A081B1812D91D1
:100390003C91CF0160E5F9011995D701ED91FC91F0
:1003A000A081B18110612D913C91CF01612FF901A4
:1003B0001995F701C081D181C114D10481F0D60112
:1003C0000D900020E9F71197AC19BD09E881F9817A
:1003D0000280F381E02DCE01B601AD011995D70160
:1003E000ED91FC91A081B1812D913C91CF0160E014
:1003F000F9011995D701ED91FC91A081B1812D9161
:100400003C91CF0167EFF9011995DF91CF911F91D1
:10041000FF90EF90DF90CF90089501C00895FC0108
:10042000718360830895EF92FF920F931F938C0165
:10043000F42EE22EDC01ED91FC91A081B181606986
:100440002D913C91CF01F9011995D801ED91FC91C5
:10045000A081B1812D913C91CF016F2DF9011995AA
:10046000D801ED91FC91A081B1812D913C91CF01FA
:100470006E2DF90119951F910F91FF90EF9008953E
:10048000EF92FF920F931F938C01F42EE22EDC016A
:10049000ED91FC91A081B181606B2D913C91CF01D8
:1004A000F9011995D801ED91FC91A081B1812D91AF
:1004B0003C91CF016F2DF9011995D801ED91FC9177
:1004C000A081B1812D913C91CF016E2DF90119953B
:1004D0001F910F91FF90EF9008951F93CF93DF939B
:1004E0008091680A30916A0AA8EEBAE0315070E053
:1004F000132F181B22C0E72FE40FF0E04F5F5F4F70
:10050000EE50F54F2081220FCE01042E02C09595AA
:1005100087950A94E2F78170282B20834530510596
:1005200051F7E32FF0E0EE50F54F8081880F6170B6
:10053000862B808331507B5F1196311731F06C919F
:10054000C62FD0E040E050E0D6CFDF91CF911F9191
:100550000895FB01DA019081990F982B90838C917B
:10056000882321F49F3F71F481E005C0813029F494
:10057000992341F082E08C930895823019F49923F5
:1005800009F41C92089580916A0AEEE2FBE0A2EF62
:10059000BAE0282F30E02E0F3F1F42E091E017C055
:1005A0008081882329F48C918F3F79F490830DC04A
:1005B000813029F48C91882341F0408306C0823039
:1005C00021F48C91882309F4108231961196E21758
:1005D000F30731F708958130910571F46F5F7F4F14
:1005E00099F488EC9AE062E043E020E0D7D584EE0D
:1005F0009AE068EC7AE011CF892B31F46F5F7F4F7E
:1006000019F488EC9AE057C4089580E090E06FEF09
:100610007FEFE1CF81E090E06FEF7FEFDCCF682FDD
:1006200084EE9AE04091750B20E0FDDE1092750B90
:1006300008950F931F93CF93DF9308E51AE0C0E06E
:10064000D0E00AC0F801808161E023D7F8018191F0
:100650008F0160E0D1D721968091680A90E0C81799
:10066000D90784F3C0E0D0E007C0FE01EE59F54F92
:10067000808160E00ED721968091690A90E0C817CA
:10068000D9079CF3DF91CF911F910F9108950F939C
:100690001F9307EE1DE0C80140E05BE460E070E0FE
:1006A0000E949E0DC80160E072E00E9414118DE26C
:1006B00062E0EFD68FE262E0ECD681E362E0E9D659
:1006C00083E361E0E6D688EC9AE042E15AE760E035
:1006D00070E0D2D2AEDF68E873E180E090E0E0D570
:1006E00004EE1AE040918A0450918B04C80160E046
:1006F00008DEC80160E04CE32FE395DE6AEF70E0AE
:1007000080E090E0CDD5C80160E04CE320E08BDED6
:1007100064E670E080E090E0C3D51F910F910895EA
:10072000DF92EF92FF920F931F93CF93DF9388E5B1
:10073000E82E8AE0F82E00E010E02BC0F70180815F
:1007400061E05AD781E090E004D6DD24C0E0D0E03B
:100750000FC0FE01EE59F54F808180D781709070F7
:100760000C2E02C0880F991F0A94E2F7D82A21960E
:100770008091690A90E0C817D9075CF3F801E85145
:10078000F54FD082F70181917F0160E035D70F5F8F
:100790001F4F8091680A90E0081719077CF2DF91DB
:1007A000CF911F910F91FF90EF90DF900895B8DFE8
:1007B00094DEE9CE1F9384EE9AE060E041E420915C
:1007C0006B0A5EDE84EE9AE060E045E020916E0BFD
:1007D00057DEEDDF81E342D720E0892B09F421E0E9
:1007E000822F6CE67BE04DE65BE0B3DE80916D0B23
:1007F000813049F480916B0A882311F080E001C0B8
:100800008FE780936B0A84E410D6B3E095958795C3
:10081000BA95E1F780936E0B60E080916B0A8823B4
:1008200009F461E083E3E8D68FE218D720E0892B52
:1008300009F421E0822F6AE67BE04BE65BE089DE8B
:1008400010E011C0E12FF0E0E25DF44F80818130D3
:1008500049F41093A00A87EE9DE0612F4AE050E032
:100860000E94F6101F5F80916A0A181758F3809152
:10087000730B9091740B892B09F08FC04091A00AE3
:100880004F3F09F48AC0E0916F0BF091700B423337
:1008900018F1309729F440936F0B1092700B78C0C9
:1008A000242F30E0E217F30709F441C08091710B67
:1008B0009091720B8217930709F466C0FA973297EA
:1008C00008F062C0842F8A53823008F05DC03093F4
:1008D000720B2093710B5CC08091710B9091720B25
:1008E000309781F4892B09F053C0E42FF0E0EE0F2C
:1008F000FF1FE458FB4F808191819093740B80938C
:10090000730B46C00097C1F4EE0FFF1FE85FF54F71
:10091000842F90E0880F991F0190F081E02DE80F5F
:10092000F91F808191819093740B8093730B1092C7
:10093000700B10926F0B2CC08E179F0718F42E2F80
:10094000E82F01C0282FF0E02B3319F480E190E06C
:1009500002C080E090E0EE0FFF1FE80FF91FE058A3
:10096000F54F842F90E0880F991F0190F081E02DC2
:10097000E80FF91F808191819093740B8093730B22
:100980001092700B10926F0B1092720B1092710BF1
:100990004093A10A8FEF8093A00A8091730B9091EE
:1009A000740B892B09F44DC08091750B882319F0C5
:1009B00080E090E034DE85E438D525E09595879594
:1009C0002A95E1F7885C8093750B4091730B5091E9
:1009D000740B84EE9AE060E094DC84EE9AE060E0D0
:1009E0004091750B2FE31FDD87EE9DE067E072E01D
:1009F0000E94121187EE9DE06091750B4AE050E075
:100A00000E94E51087EE9DE06DE072E00E941211F9
:100A10006091730B7091740B87EE9DE00E94121130
:100A200087EE9DE00E943B102DD46093760B70936F
:100A3000770B8093780B9093790B1092740B109234
:100A4000730B8091750B882321F180916B0B8230A1
:100A5000D1F018D42091760B3091770B4091780B20
:100A60005091790B621B730B840B950B2091A20A9A
:100A70003091A30A4091A40A5091A50A261737077E
:100A80004807590730F480E090E0C9DD8FEF80938C
:100A9000A10A1F9108950F931F93CF93DF93FC0139
:100AA000738D76957170A685B7859585772329F026
:100AB0008C91892309F454C004C08C91892309F0D6
:100AC0004FC08389948920E001972FEF8F3F9207D1
:100AD000D9F7C589D689A685B785158560E031E047
:100AE00040E050E000E0CE01202F01972FEF8F3F34
:100AF0009207D9F78C91812311F0632B03C0832FC8
:100B000080956823330F4F5F5F4F4830510559F789
:100B10008789908D20E001972FEF8F3F9207D9F7BB
:100B2000711160958091BC0B2091BD0B90E00196F6
:100B30008F73907030E08217930779F0E091BC0BCF
:100B4000F0E0E458F44F60838091BC0B90E0019694
:100B50008F7390708093BC0B03C0838D8160838FF3
:100B6000DF91CF911F910F9108951F920F920FB6B1
:100B70000F920BB60F9211242F933F934F935F93D5
:100B80006F937F938F939F93AF93BF93EF93FF9355
:100B900080917A0B90917B0B009709F07CDFFF919D
:100BA000EF91BF91AF919F918F917F916F915F91E5
:100BB0004F913F912F910F900BBE0F900FBE0F9052
:100BC0001F9018951F920F920FB60F920BB60F92AF
:100BD00011242F933F934F935F936F937F938F9342
:100BE0009F93AF93BF93EF93FF9380917A0B909174
:100BF0007B0B009709F04FDFFF91EF91BF91AF9111
:100C00009F918F917F916F915F914F913F912F9124
:100C10000F900BBE0F900FBE0F901F9018951F9254
:100C20000F920FB60F920BB60F9211242F933F9392
:100C30004F935F936F937F938F939F93AF93BF93E4
:100C4000EF93FF9380917A0B90917B0B009709F0C3
:100C500022DFFF91EF91BF91AF919F918F917F9193
:100C60006F915F914F913F912F910F900BBE0F901D
:100C70000FBE0F901F901895CF92DF92EF92FF92C8
:100C80000F931F93CF93DF93EC017A018B011A8EA0
:100C9000198E188E1F8A1E8A1D8A1C8A1B8A20E0C4
:100CA00030E06901CC0CDD1CC20ED31EB601660F0C
:100CB000771F660F771FAB014C515F4FFA0185918B
:100CC0009591A591B4918E159F05A007B107E9F400
:100CD000FB01E851FF4F859194919C8B8B8BFB011D
:100CE000E651FF4F859194919E8B8D8BFB01E451D2
:100CF000FF4F85919491988F8F8BFB01E251FF4FAD
:100D0000859194919A8F898F06C02F5F3F4F2D3028
:100D1000310509F0C6CF8F89988D892B09F468C0F9
:100D20009C85292F2A50243040F0892F825384300B
:100D300020F08C50883008F053C030916800243087
:100D400048F0892F8253843028F09E53983010F455
:100D500084E001C081E0832B809368002C85922F72
:100D60009A50943090F0822F8253843070F08C50DF
:100D7000883008F455C0A0E0B0E0883018F0E0E01A
:100D8000F0E007C0EDE6F0E004C0EBE6F0E0ABE633
:100D9000B0E04081943020F430E02650304015C05F
:100DA000223311F488E01AC0233311F484E016C012
:100DB000243311F482E012C0253379F0822F8E5350
:100DC000883058F430E02E53304081E090E002C08B
:100DD000880F991F2A95E2F701C081E0842B8C933C
:100DE000898D9A8D20E001972FEF8F3F9207D9F7D9
:100DF00080917A0B90917B0B8C179D07A1F08B8DC6
:100E00008E7F8B8F9FB7F8941092BC0B8091BC0B98
:100E10008093BD0BD0937B0BC0937A0B9FBF03C015
:100E2000ADE6B0E0AACFDF91CF911F910F91FF9077
:100E3000EF90DF90CF900895FC012485922F9A5077
:100E4000943060F0822F8253843040F08C50883090
:100E500088F5EDE6F0E0ADE6B0E004C0EBE6F0E0EA
:100E6000ABE6B0E04081943020F430E026503040D2
:100E700015C0223311F487EF1BC0233311F48BEF1D
:100E800017C0243311F48DEF13C0253381F0822F66
:100E90008E53883060F430E02E53304081E090E093
:100EA00002C0880F991F2A95E2F7809501C08EEF46
:100EB00084238C930895FC018BEA9AE091838083CC
:100EC000CF01BACF20917A0B30917B0B28173907CD
:100ED00031F49091BD0B8091BC0B981719F42FEF52
:100EE0003FEF0FC0E091BD0BF0E0E458F44F2081DC
:100EF0008091BD0B90E001968F7390708093BD0B35
:100F000030E0C901089520917A0B30917B0B2817AE
:100F1000390719F020E030E00EC08091BC0B209121
:100F2000BD0B90E0805C9F4F821B910960E470E0F4
:100F30000E9444119C01C90108950F931F93DC0185
:100F400059968D919C915A97892B49F481E090E0B4
:100F500013969C938E93129720E030E097C00FB7C2
:100F6000F8945B968C915B975196ED91FC9152971A
:100F700050962C91509781FF8DC08081822B808369
:100F800059968D919C915A97059620E001972FEFE5
:100F90008F3F9207D9F75B968C915B9781FF35C0A5
:100FA00031E040E050E070E010E0832F90E08623D5
:100FB00097235196ED91FC91529750962C91509712
:100FC000892B29F0808120952823208303C08081EC
:100FD000822B808359968D919C915A97212F01974E
:100FE0002FEF8F3F9207D9F7330F4F5F5F4F483096
:100FF0005105D9F65196ED91FC91529790815096FA
:101000008C9150978095892333C031E040E050E0C7
:1010100070E010E0832F90E0862397235196ED91A6
:10102000FC91529750962C915097892B21F08081FA
:10103000822B808304C080812095282320835996A9
:101040008D919C915A97212F01972FEF8F3F9207F7
:10105000D9F7330F4F5F5F4F48305105D9F651969E
:10106000ED91FC915297808150969C915097892BDD
:1010700080830FBF59968D919C915A9720E00197DC
:101080002FEF8F3F9207D9F721E030E0C9011F9180
:101090000F910895808120952823208371CF20917E
:1010A0007A0B30917B0B2817390749F49FB7F894D6
:1010B0001092BC0B8091BC0B8093BD0B9FBF089519
:1010C00020917A0B30917B0B2817390731F49091DE
:1010D000BD0B8091BC0B981719F42FEF3FEF0AC09E
:1010E000E091BD0BF0E0E458F44F8081282F3327C6
:1010F00027FD3095C90108951F93CF93DF93EC012D
:10110000162F862F60E0C5D18B8D81FD03C0812F06
:1011100061E072D21C87212F30E0C9018C5E9D4FA7
:10112000FC0184918D8722533E4FF9016491E62F93
:10113000F0E0EE0FFF1FEC54FE4F859194919F87D6
:101140008E87DF91CF911F910895FF920F931F9388
:101150008C01F62E862F61E09CD18F2D61E04CD260
:101160008F2D90E0FC01EC5EFD4FE491D80150968C
:10117000EC93509782539E4FFC016491E62FF0E070
:10118000EE0FFF1FE656FE4F8591949152969C9369
:101190008E9351971F910F91FF900895FF920F9397
:1011A0001F938C01F62EFC011382128288EE93E0CD
:1011B000A0E0B0E084839583A683B7838BEA9AE0AE
:1011C00091838083148A138A168A158A108E178A4F
:1011D000128E118E838D2170220F8C7F822B838F34
:1011E000C801642FB2DFC8016F2D86DF1F910F91F8
:1011F000FF9008951F920F920FB60F9211242F9314
:101200003F938F939F93AF93BF938091C20B909125
:10121000C30BA091C40BB091C50B3091C60B0196C6
:10122000A11DB11D232F2D5F2D3720F02D570196C5
:10123000A11DB11D2093C60B8093C20B9093C30BCD
:10124000A093C40BB093C50B8091BE0B9091BF0BC4
:10125000A091C00BB091C10B0196A11DB11D80934F
:10126000BE0B9093BF0BA093C00BB093C10BBF916B
:10127000AF919F918F913F912F910F900FBE0F9043
:101280001F9018958FB7F8942091C20B3091C30B23
:101290004091C40B5091C50B8FBFB901CA0108958D
:1012A0009B01AC017FB7F8948091BE0B9091BF0B6E
:1012B000A091C00BB091C10B66B5A89B05C06F3F54
:1012C00019F00196A11DB11D7FBFBA2FA92F982F2C
:1012D0008827860F911DA11DB11D62E0880F991FFF
:1012E000AA1FBB1F6A95D1F7BC012DC0FFB7F894A8
:1012F0008091BE0B9091BF0BA091C00BB091C10B20
:10130000E6B5A89B05C0EF3F19F00196A11DB11DE0
:10131000FFBFBA2FA92F982F88278E0F911DA11DCF
:10132000B11DE2E0880F991FAA1FBB1FEA95D1F7F4
:10133000861B970B885E9340C8F221503040404096
:10134000504068517C4F211531054105510571F61A
:101350000895019739F0880F991F880F991F0297F8
:101360000197F1F70895789484B5826084BD84B5BF
:10137000816084BD85B5826085BD85B5816085BD90
:10138000EEE6F0E0808181608083E1E8F0E01082A9
:10139000808182608083808181608083E0E8F0E0EA
:1013A000808181608083E1EBF0E0808184608083D4
:1013B000E0EBF0E0808181608083E1E9F0E0808112
:1013C00082608083808181608083E0E9F0E08081B9
:1013D00081608083E1EAF0E08081826080838081A7
:1013E00081608083E0EAF0E0808181608083E1E2D7
:1013F000F1E0808182608083808181608083E0E28F
:10140000F1E0808181608083EAE7F0E080818460A0
:1014100080838081826080838081816080838081FD
:10142000806880831092C1000895382F863308F0B9
:10143000365320917B00832F86958695869590E084
:101440008170907043E0880F991F4A95E1F7277FDC
:10145000282B20937B0037708091A60A8295880FF5
:10146000880F807C832B80937C0080917A0080643D
:1014700080937A0080917A0086FDFCCF20917800DD
:1014800040917900942F80E030E0282B392BC9015E
:101490000895CF93DF93482F50E0CA018C5E9D4F93
:1014A000FC01349142535E4FFA018491882369F123
:1014B00090E0880F991FFC01E058FE4FA591B49170
:1014C000FC01E656FE4FC591D491662351F42FB727
:1014D000F8948C91932F909589238C9388818923FC
:1014E0000BC0623061F42FB7F8948C91932F9095D4
:1014F00089238C938881832B88832FBF06C09FB755
:10150000F8948C91832B8C939FBFDF91CF9108959A
:10151000893009F449C08A30A0F4843051F1853013
:1015200040F4823079F1833000F5813009F063C0F6
:1015300026C0873079F1883098F5863009F05BC095
:1015400025C08D3009F442C08E3028F48B30B1F1C3
:101550008C30C0F52DC0803109F442C0813109F4CE
:1015600045C08F3009F047C037C0809180008F7729
:1015700003C0809180008F7D80938000089584B5A2
:101580008F7702C084B58F7D84BD08958091B000AF
:101590008F7703C08091B0008F7D8093B000089555
:1015A000809190008F7707C0809190008F7D03C05D
:1015B00080919000877F8093900008958091A00093
:1015C0008F7707C08091A0008F7D03C08091A0001D
:1015D000877F8093A0000895809120018F7703C0BA
:1015E000809120018F7D80932001089580912001BA
:1015F000877F809320010895FF920F931F93F62E0B
:10160000482F50E0CA01865A9D4FFC012491CA011F
:101610008C5E9D4FFC01149142535E4FFA01049180
:101620000023C1F0222311F0822F72DFE02FF0E0BF
:10163000EE0FFF1FE656FE4FA591B4919FB7F894A9
:10164000FF2021F48C911095812302C08C91812B75
:101650008C939FBF1F910F91FF9008950F931F933D
:10166000482F50E0CA01865A9D4FFC012491CA01BF
:101670008C5E9D4FFC01049142535E4FFA01149120
:10168000112319F420E030E014C0222311F0822F3E
:101690003FDF812F90E0880F991F8C549E4FFC01F3
:1016A000A591B4918C9120E030E0802311F021E0ED
:1016B00030E0C9011F910F91089508951F920F9274
:1016C0000FB60F920BB60F9211242F933F934F93A7
:1016D0008F939F93EF93FF938091C00082FD1DC075
:1016E0004091C6002091070C3091080C2F5F3F4FAE
:1016F0002F7330708091090C90910A0C28173907CC
:1017000071F0E091070CF091080CE953F44F40831D
:101710003093080C2093070C02C08091C600FF9103
:10172000EF919F918F914F913F912F910F900BBE11
:101730000F900FBE0F901F90189508951F920F9253
:101740000FB60F920BB60F9211242F933F934F9326
:101750008F939F93EF93FF938091C80082FD1DC0EC
:101760004091CE0020918F0C3091900C2F5F3F4F15
:101770002F7330708091910C9091920C281739073B
:1017800071F0E0918F0CF091900CE15BF34F40838E
:101790003093900C20938F0C02C08091CE00FF916B
:1017A000EF919F918F914F913F912F910F900BBE91
:1017B0000F900FBE0F901F90189508951F920F92D3
:1017C0000FB60F920BB60F9211242F933F934F93A6
:1017D0008F939F93EF93FF938091D00082FD1DC064
:1017E0004091D6002091170D3091180D2F5F3F4F7B
:1017F0002F7330708091190D90911A0D28173907A9
:1018000071F0E091170DF091180DE952F34F4083FC
:101810003093180D2093170D02C08091D600FF91D0
:10182000EF919F918F914F913F912F910F900BBE10
:101830000F900FBE0F901F90189508951F920F9252
:101840000FB60F920BB60F9211242F933F934F9325
:101850008F939F93EF93FF938091300182FD1DC082
:101860004091360120919F0D3091A00D2F5F3F4F89
:101870002F7330708091A10D9091A20D2817390718
:1018800071F0E0919F0DF091A00DE15AF24F40836D
:101890003093A00D20939F0D02C080913601FF91DF
:1018A000EF919F918F914F913F912F910F900BBE90
:1018B0000F900FBE0F901F901895E091F30DF091CF
:1018C000F40DE05CFF4F8191919120813181821B69
:1018D000930B8F739070892B09F0EFDEE091150E5A
:1018E000F091160EE05CFF4F819191912081318142
:1018F000821B930B8F739070892B09F01EDFE09190
:10190000370EF091380EE05CFF4F8191919120816C
:101910003181821B930B8F739070892B09F04DDFFF
:10192000E091590EF0915A0EE05CFF4F8191919138
:1019300020813181821B930B8F739070892B09F06A
:101940007CCF08951F920F920FB60F920BB60F9295
:1019500011242F933F938F939F93EF93FF932091A5
:101960004B0C30914C0C80914D0C90914E0C2817E3
:10197000390731F48091C1008F7D8093C10014C07C
:10198000E0914D0CF0914E0CE55FF34F208180917A
:101990004D0C90914E0C01968F73907090934E0C5D
:1019A00080934D0C2093C600FF91EF919F918F91F2
:1019B0003F912F910F900BBE0F900FBE0F901F9075
:1019C00018951F920F920FB60F920BB60F9211241B
:1019D0002F933F938F939F93EF93FF932091D30C7B
:1019E0003091D40C8091D50C9091D60C28173907E2
:1019F00031F48091C9008F7D8093C90014C0E091BB
:101A0000D50CF091D60CED56F34F20818091D50C7A
:101A10009091D60C01968F7390709093D60C809312
:101A2000D50C2093CE00FF91EF919F918F913F9124
:101A30002F910F900BBE0F900FBE0F901F90189517
:101A40001F920F920FB60F920BB60F9211242F9385
:101A50003F938F939F93EF93FF9320915B0D309172
:101A60005C0D80915D0D90915E0D2817390731F462
:101A70008091D1008F7D8093D10014C0E0915D0DE5
:101A8000F0915E0DE55EF24F208180915D0D9091A9
:101A90005E0D01968F73907090935E0D80935D0D37
:101AA0002093D600FF91EF919F918F913F912F91BD
:101AB0000F900BBE0F900FBE0F901F9018951F92A6
:101AC0000F920FB60F920BB60F9211242F933F93E4
:101AD0008F939F93EF93FF932091E30D3091E40D4B
:101AE0008091E50D9091E60D2817390731F480912A
:101AF00031018F7D8093310114C0E091E50DF091AB
:101B0000E60DED55F24F20818091E50D9091E60DA7
:101B100001968F7390709093E60D8093E50D20935E
:101B20003601FF91EF919F918F913F912F910F90EF
:101B30000BBE0F900FBE0F901F901895AF92BF92E3
:101B4000DF92EF92FF920F931F93CF93DF93EC01FD
:101B50007A018B01DD24403081EE580780E0680770
:101B600080E0780711F0DD24D39491E0A92EB12C08
:101B7000EC89FD89DD2069F0C50108A002C0880F4D
:101B8000991F0A94E2F7808360E079E08DE390E0AA
:101B900005C0108260E874E88EE190E0A80197012A
:101BA00086D3215030404040504056954795379558
:101BB000279580E12030380720F0DD2011F0DD246A
:101BC000D7CFE889F9893083EA89FB89208319A274
:101BD000EE89FF89408121E030E0C9010C8C02C010
:101BE000880F991F0A94E2F7482B4083EE89FF89FA
:101BF0004081C9010D8C02C0880F991F0A94E2F739
:101C0000482B4083EE89FF894081C9010E8C02C0B8
:101C1000880F991F0A94E2F7482B4083EE89FF89C9
:101C200080810F8C02C0220F331F0A94E2F72095A7
:101C300028232083DF91CF911F910F91FF90EF9088
:101C4000DF90BF90AF900895DC011C96ED91FC9160
:101C50001D97E05CFF4F2191319180819181281B7C
:101C6000390B2F733070C9010895DC011C96ED917A
:101C7000FC911D97E05CFF4F20813181E054F040E2
:101C8000DF01AE5BBF4F8D919C91119728173907EB
:101C900019F42FEF3FEF07C08D919C91E80FF91FCA
:101CA0008081282F30E0C9010895DC011C96ED9158
:101CB000FC911D97E05CFF4F20813181E054F040A2
:101CC000DF01AE5BBF4F8D919C91119728173907AB
:101CD00019F42FEF3FEF10C08D919C911197E80FF1
:101CE000F91F20818D919C91119701968F739070AF
:101CF00011969C938E9330E0C9010895DC01919672
:101D00008C919197882339F05496ED91FC915597D9
:101D1000808186FFF9CF91961C920895CF93DF932F
:101D2000EC01EE85FF85E05CFF4F20813181E054BE
:101D3000F0402F5F3F4F2F733070DF01AE5BBF4F1E
:101D40008D919C91119728173907D1F3E05CFF4FD3
:101D500080819181E054F040E80FF91F6083EE85A7
:101D6000FF85E05CFF4F31832083EE89FF8920816E
:101D700081E090E00F8C02C0880F991F0A94E2F76F
:101D8000282B208381E089A3EC89FD8980818064F0
:101D9000808381E090E0DF91CF9108951F931092AE
:101DA000EA0D1092E90D28EE33E040E050E0209378
:101DB000EB0D3093EC0D4093ED0D5093EE0D6BEB6E
:101DC0007AE07093E80D6093E70D87EC9BE09093C9
:101DD000F40D8093F30D8BE09CE09093F60D8093CF
:101DE000F50D85EC90E09093F80D8093F70D84EC61
:101DF00090E09093FA0D8093F90D80EC90E0909331
:101E0000FC0D8093FB0D81EC90E09093FE0D809390
:101E1000FD0D82EC90E09093000E8093FF0D86EC18
:101E200090E09093020E8093010E14E01093030E45
:101E3000B3E0B093040EA7E0A093050EF5E0F09395
:101E4000060EE1E0E093070E10920C0E10920B0EBE
:101E500020930D0E30930E0E40930F0E5093100EE4
:101E600070930A0E6093090E8FE49CE09093160E17
:101E70008093150E83E99CE09093180E8093170EC3
:101E80008DEC90E090931A0E8093190E8CEC90E0FC
:101E900090931C0E80931B0E88EC90E090931E0E86
:101EA00080931D0E89EC90E09093200E80931F0E7E
:101EB0008AEC90E09093220E8093210E8EEC90E0BD
:101EC0009093240E8093230E1093250EB093260E2C
:101ED000A093270EF093280EE093290E10922E0E59
:101EE00010922D0E20932F0E3093300E4093310E12
:101EF0005093320E70932C0E60932B0E87ED9CE066
:101F00009093380E8093370E8BE19DE090933A0EBC
:101F10008093390E85ED90E090933C0E80933B0EBC
:101F200084ED90E090933E0E80933D0E80ED90E026
:101F30009093400E80933F0E81ED90E09093420E7F
:101F40008093410E82ED90E09093440E8093430E77
:101F500086ED90E09093460E8093450E1093470EC9
:101F6000B093480EA093490EF0934A0EE0934B0EA7
:101F70001092500E10924F0E2093510E3093520E2D
:101F80004093530E5093540E70934E0E60934D0E2B
:101F90008FE59DE090935A0E8093590E83EA9DE061
:101FA00090935C0E80935B0E85E391E090935E0EC0
:101FB00080935D0E84E391E09093600E80935F0EBA
:101FC00080E391E09093620E8093610E81E391E053
:101FD0009093640E8093630E82E391E09093660E7B
:101FE0008093650E86E391E09093680E8093670E70
:101FF0001093690EB0936A0EA0936B0EF0936C0E63
:10200000E0936D0E1F910895CF93DF93ACD90E949A
:102010004703CDE5DCE00E94DA032097E1F34DDCD5
:10202000FACFCF92DF92EF92FF920F931F93CF934D
:10203000DF937C016B018A01C0E0D0E00FC0D601C4
:102040006D916D01D701ED91FC910190F081E02D32
:10205000C7011995C80FD91F01501040011511056E
:1020600071F7CE01DF91CF911F910F91FF90EF900B
:10207000DF90CF900895EF92FF920F931F938C0102
:10208000DC01ED91FC910190F081E02D6DE019955E
:102090007C01D801ED91FC910190F081E02DC80107
:1020A0006AE019959C012E0D3F1DC9011F910F91EA
:1020B000FF90EF900895CF93DF93EC0161157105C8
:1020C00019F420E030E00FC0DB010D900020E9F7AB
:1020D0001197A61BB70BE881F9810280F381E02DEF
:1020E000AD0119959C01C901DF91CF9108954F92DF
:1020F0005F927F928F929F92AF92BF92CF92DF9228
:10210000EF92FF920F931F93DF93CF93CDB7DEB77C
:10211000A1970FB6F894DEBF0FBECDBF2C01742E71
:10212000CB01223008F42AE019A231E2C32ED12CCF
:10213000CC0EDD1E822E9924AA24BB24672D752F78
:10214000A5019401B4D079018A01C801B701A501A4
:1021500094017BD0472D461B0894C108D1084A3012
:1021600014F4405D01C0495CF6014083E114F104C0
:102170000105110521F07E2C5F2DC801DFCFC201C2
:10218000B60199DFA1960FB6F894DEBF0FBECDBFA2
:10219000CF91DF911F910F91FF90EF90DF90CF9043
:1021A000BF90AF909F908F907F905F904F900895D9
:1021B000DC012115310541F4ED91FC910190F08194
:1021C000E02D642F1995089592CFEF92FF920F930F
:1021D0001F939A01E62EFF2400E010E0B801A7014A
:1021E000E7DF1F910F91FF90EF900895CF92DF925C
:1021F000EF92FF920F931F936C01E62E9A01FF243A
:1022000000E010E0B801A701D3DF8C01C60133DF85
:10221000080F191FC8011F910F91FF90EF90DF90D9
:10222000CF90089548CF0895EF92FF920F931F9398
:102230007C0141DF8C01C7011EDF080F191FC80197
:102240001F910F91FF90EF900895629FD001739FAF
:10225000F001829FE00DF11D649FE00DF11D929F42
:10226000F00D839FF00D749FF00D659FF00D992781
:10227000729FB00DE11DF91F639FB00DE11DF91FA5
:10228000BD01CF011124089597FB092E07260AD01E
:1022900077FD04D02ED006D000201AF470956195F9
:1022A0007F4F0895F6F7909581959F4F0895A1E28D
:1022B0001A2EAA1BBB1BFD010DC0AA1FBB1FEE1FC0
:1022C000FF1FA217B307E407F50720F0A21BB30B0B
:1022D000E40BF50B661F771F881F991F1A9469F787
:1022E00060957095809590959B01AC01BD01CF01E3
:1022F0000895AA1BBB1B51E107C0AA1FBB1FA6174D
:10230000B70710F0A61BB70B881F991F5A95A9F79E
:1023100080959095BC01CD010895EE0FFF1F0590AB
:10232000F491E02D199412E0C4EAD2E003C0FE015A
:0E233000F6DF2296C63AD107D1F7F894FFCF18
:10233E0077616B65757000746F6E653D00646174D6
:10234E00613D00610069004D0065006F006B20610A
:10235E00006B272069006B204D006B2065006B2001
:10236E006F00732061005320690073204D007320AD
:10237E00650073206F00742061007453206900742F
:10238E0073204D007420650074206F006E20610074
:10239E004A2069006E204D006E2065006E206F0091
:1023AE006820610043206900705C204D0068206544
:1023BE000068206F006D2061006D272069006D2080
:1023CE004D006D2065006D206F006A206100006A6F
:1023DE00204D006A206F00342061003427206900F0
:1023EE0034204D003420650034206F0077206100CA
:1023FE0077206900772065006720610067272069D4
:10240E000067204D006720650067206F00647A200A
:10241E006100645A206900647A204D00647A206558
:10242E0000647A206F0064206100642065006420DF
:10243E006F0062206100622720690062204D0062F9
:10244E0020650062206F00702061007027206900F7
:10245E0070204D007020650070206F007473206135
:10246E0000705C2061007320690074732069007431
:10247E0027206900705C2720690074204D006A20B7
:10248E0065006B272065005320650074532065009E
:10249E00747320650074272065004A206500432070
:1024AE006500705C2065006D27206500342720656F
:1024BE000077206F007473206F00705C206F006BCC
:1024CE00272061005320610074532061007427207F
:1024DE0061004A20610043206100705C272061008A
:1024EE006D2720610034272061006B27204D00539B
:1024FE00204D007453204D007427204D004A204D6E
:10250E000043204D00705C27204D006D27204D00AC
:10251E003427204D006B27206F0053206F0074531B
:10252E00206F007427206F004A206F0043206F0039
:10253E006D27206F003427206F0067272065006409
:10254E007A206900645A2065006427206900642798
:10255E0020650064204D0062272065004E27206113
:10256E00006727204D004E27206F00645A2061001F
:10257E00645A204D00645A206F0064272061006465
:10258E0027204D006427206F0062272061006227FC
:10259E00204D006227206F007027206500702720D5
:1025AE0061007027204D007027206F001302150266
:1025BE00170219021B021D02210226022A022E02F6
:1025CE00320236023A023E02420246024A024F02EC
:1025DE00540258025C026002640268026C027002CD
:1025EE00740278027D028102850289028E029202B5
:1025FE0096029A029E029F029E02A302A702AB02BD
:10260E00B002B402B802BC02C0021702C4021B021E
:10261E009E029E029E029E029E02C802CC02D10221
:10262E00D502D902DD02E202E702EC02F102F60265
:10263E00E202E702FA02FE029E029E029E029E0243
:10264E009E02020306030B030F0313039E029E0258
:10265E009E029E029E029E029E029E029E029E026C
:10266E009E029E029E029E029E029E029E029E025C
:10267E009E029E029E029E029E029E029E029E024C
:10268E009E029E029E029E029E029E029E029E023C
:10269E009E029E029E029E029E029E029E029E022C
:1026AE009E029E029E0217031B032003240328038F
:1026BE009E029E029E029E029E029E029E029E020C
:1026CE009E029E029E029E029E029E029E029E02FC
:1026DE009E029E029E029E029E029E029E029E02EC
:1026EE009E029E029E029E029E029E029E029E02DC
:1026FE009E029E029E029E029E022C039E029E023D
:10270E009E029E029E029E029E029E029E02310327
:10271E009E029E029E029E029E029E029E029E02AB
:10272E009E029E029E029E029E029E029E029E029B
:10273E009E029E029E029E029E029E029E029E028B
:10274E00C0029E029E029E029E029E029E029E0259
:10275E009E029E0236039E029E029E029E023A0335
:10276E003F039E029E029E029E029E029E029E02B9
:10277E009E0244039E029E029E029E029E029E02A4
:10278E009E029E029E029E029E029E029E029E023B
:10279E009E029E029E029E029E029E029E029E022B
:1027AE009E029E029E029E029E029E029E029E021B
:1027BE009E029E029E029E029E029E029E029E020B
:1027CE009E029E029E024A039E029E029E029E024E
:1027DE009E029E029E029E029E029E029E029E02EB
:1027EE009E029E029E029E029E029E029E029E02DB
:1027FE009E029E029E029E029E029E029E029E02CB
:10280E009E029E029E024E03C4029E029E029E02E3
:10281E0052039E029E029E029E0257039E029E023B
:10282E009E029E025B03600365039E029E026A0384
:10283E009E029E029E029E026E0372039E029E02E4
:10284E009E0277039E029E029E029E029E029E02A0
:10285E009E029E029E027C039E029E029E029E028B
:10286E009E029E029E029E029E029E0281039E0276
:10287E009E029E029E029E029E029E029E029E024A
:10288E009E029E029E029E029E0285039E029E0252
:10289E009E029E029E029E029E029E029E028A033D
:1028AE009E029E029E029E029E029E029E029E021A
:1028BE009E029E029E029E029E029E029E029E020A
:1028CE009E029E029E029E029E029E029E029E02FA
:1028DE009E029E029E029E028F039E029E029E02F8
:1028EE009E0294039E029E029E029E0298039E02E8
:1028FE009D039E029E02A2039E029E029E029E02C5
:10290E00A603AA039E029E029E02B0039E029E0290
:10291E009E029E02B5039E029E029E029E029E0291
:10292E009E029E029E029E029E029E029E029E0299
:10293E009E029E029E029E029E029E02BA039E026C
:10294E009E029E029E02BF039E029E029E029E0257
:10295E00C3039E02C8039E029E02CD039E029E02E8
:10296E009E029E02D103D5039E029E029E02DB03AF
:10297E009E029E029E029E029E029E029E029E0249
:10298E009E02E0039E029E029E029E029E029E02F6
:10299E009E029E029E029E029E029E029E029E0229
:1029AE00E5039E029E029E029E02EA039E029E0284
:1029BE009E029E02EE039E02F3039E029E02F80307
:1029CE009E029E029E029E02FC039E029E029E029A
:1029DE009E0200049E029E029E029E029E029E0285
:1029EE009E029E029E0205049E029E029E029E0270
:1029FE009E029E029E029E029E029E029E029E02C9
:102A0E009E029E029E029E020A049E029E029E024A
:102A1E000F049E029E029E029E029E0214049E02BD
:102A2E009E0219049E021E0423049E029E029E0212
:102A3E0027049E029E029E029E029E029E029E02FD
:102A4E009E029E029E029E029E029E029E029E0278
:102A5E009E029E029E029E029E029E029E029E0268
:102A6E009E029E029E022C049E0231049E02360499
:102A7E003B049E0240049E0245044A049E024F04FB
:102A8E009E0254049E029E029E029E029E025904C3
:102A9E009E025E049E0263049E029E029E029E029F
:102AAE009E029E029E029E029E029E029E029E0218
:102ABE009E029E029E029E029E029E029E029E0208
:102ACE009E029E029E029E029E029E029E029E02F8
:102ADE009E029E029E029E029E029E029E029E02E8
:102AEE009E029E029E029E029E029E029E029E02D8
:102AFE009E029E029E029E0268049E029E029E02FC
:102B0E009E029E029E029E029E029E029E029E02B7
:102B1E009E029E029E029E029E029E029E029E02A7
:102B2E009E029E029E029E029E029E029E029E0297
:102B3E009E029E029E029E029E029E029E029E0287
:102B4E009E029E029E029E029E029E029E029E0277
:102B5E009E029E029E026D049E0272049E027704E5
:102B6E009E029E029E029E029E029E029E029E0257
:102B7E009E029E029E029E029E029E029E029E0247
:102B8E009E029E029E029E0216181A1C1E202224CF
:102B9E0026281F21232527290A063C7FA8050C0677
:102BAE007006D40638079C0700086408E004440544
:102BBE00C808C808C808C808C8082C092C092C0958
:102BCE0090099009900990099009F409F409F40903
:102BDE00FF3CE803000001000000009D0711108378
:102BEE0007620760084F08000000008E0E111024C7
:082BFE000E550E350E7E0E008F
:00000001FF
