:100000000C94BA030C94E2030C94E2030C944E0A91
:100010000C94780A0C94A20A0C94E2030C94E20368
:100020000C94E2030C94E2030C94E2030C94E203BC
:100030000C94E2030C94E2030C94E2030C94E203AC
:100040000C94650D0C94E2030C94ED0E0C943B0F94
:100050000C94E2030C94E2030C94E2030C94E2038C
:100060000C94E2030C94E20308101000000000005E
:100070000000000000000000081010000000000058
:100080000000000000000000000000000000000070
:1000900000000000000000000000183C3C3C181864
:1000A00018001818000000000063636322000000BD
:1000B000000000000000000000000036367F3636E9
:1000C000367F3636000000000C0C3E6361603E0354
:1000D0000343633E0C0C0000000000000061630657
:1000E0000C183363000000000000001C36361C3B77
:1000F0006E66663B0000000000303030600000009B
:10010000000000000000000000000C181830303023
:100110003018180C000000000000180C0C06060631
:10012000060C0C18000000000000000042663CFFB6
:100130003C6642000000000000000000181818FF94
:100140001818180000000000000000000000000067
:10015000000018181830000000000000000000FF28
:10016000000000000000000000000000000000008F
:10017000000018180000000000000103070E1C38E2
:1001800070E0C0800000000000003E6363636B6BA2
:100190006363633E0000000000000C1C3C0C0C0C70
:1001A0000C0C0C3F0000000000003E6303060C181E
:1001B0003061637F0000000000003E6303031E0304
:1001C0000303633E000000000000060E1E36666654
:1001D0007F06060F0000000000007F6060607E0365
:1001E0000363733E0000000000001C3060607E630B
:1001F0006363633E0000000000007F630306060C9B
:100200000C1818180000000000003E6363633E6392
:100210006363633E0000000000003E636363633F6E
:100220000303063C00000000000000000018180056
:10023000000018180000000000000000001818005E
:100240000000181818300000000000060C1830607C
:1002500030180C06000000000000000000007E00C6
:10026000007E0000000000000000006030180C0656
:100270000C1830600000000000003E6363060C0CA8
:100280000C000C0C0000000000003E63636F6B6B01
:100290006E60603E000000000000081C366363636F
:1002A0007F6363630000000000007E3333333E331E
:1002B0003333337E0000000000001E336160606055
:1002C0006061331E0000000000007C36333333339E
:1002D0003333367C0000000000007F3331343C347F
:1002E0003031337F0000000000007F3331343C3474
:1002F000303030780000000000001E336160606F15
:100300006363371D000000000000636363637F6365
:10031000636363630000000000003C18181818189D
:100320001818183C0000000000000F06060606061C
:100330000666663C000000000000733336363C362B
:100340003633337300000000000078303030303036
:100350003031337F00000000000063777F6B636300
:10036000636363630000000000006363737B7F6F5F
:10037000676363630000000000001C36636363630F
:100380006363361C0000000000007E3333333E30D0
:10039000303030780000000000003E636363636328
:1003A000636B6F3E0607000000007E3333333E363A
:1003B000363333730000000000003E6363301C06D8
:1003C0000363633E000000000000FFDB991818186B
:1003D0001818183C00000000000063636363636347
:1003E0006363633E00000000000063636363636354
:1003F00063361C0800000000000063636363636BE6
:100400006B7F3636000000000000C3C3663C18183E
:100410003C66C3C3000000000000C3C3C3663C18B1
:100420001818183C0000000000007F6343060C18F9
:100430003061637F0000000000003C30303030301D
:100440003030303C00000000000080C0E070381CFC
:100450000E0703010000000000003C0C0C0C0C0C0B
:100460000C0C0C3C00000000081C3663000000006F
:10047000000000000000000000000000000000007C
:1004800000000000FF00000018180C000000000031
:10049000000000000000000000000000003C4606D4
:1004A0003E66663B0000000000007030303C363392
:1004B0003333336E0000000000000000003E636034
:1004C0006060633E0000000000000E06061E3666F7
:1004D0006666663B0000000000000000003E6363AB
:1004E0007E60633E0000000000001C3632307C302D
:1004F000303030780000000000000000003B6666ED
:1005000066663E06663C00000000703030363B33C5
:10051000333333730000000000000C0C001C0C0C83
:100520000C0C0C1E0000000000000606000E060663
:1005300006060666663C0000000070303033333635
:100540003C3633730000000000001C0C0C0C0C0C3B
:100550000C0C0C1E0000000000000000006E7F6B01
:100560006B6B6B6B0000000000000000006E33330B
:10057000333333330000000000000000003E6363AB
:100580006363633E0000000000000000006E333330
:1005900033333E303078000000000000003B6666D8
:1005A00066663E06060F000000000000006E3B334A
:1005B000303030780000000000000000003E63385A
:1005C0000E03633E0000000000000818187E181893
:1005D00018181B0E00000000000000000066666690
:1005E0006666663B000000000000000000636336A2
:1005F000361C1C080000000000000000006363635C
:100600006B6B7F3600000000000000000063361CAA
:100610001C1C3663000000000000000000636363E0
:1006200063633F03063C000000000000007F660C8F
:100630001830637F0000000000000E1818187018B2
:100640001818180E000000000000181818181800DC
:1006500018181818180000000000701818180E1844
:10066000181818700000000000003B6E0000000029
:10067000000000000000000000C2010001001100A5
:1006800011000C0000E100000A00250025002100F7
:10069000009600001900390039003600127A000077
:1006A0001F004600460044008070000022004D00FC
:1006B0004D004A00004B00003600750075007200C6
:1006C000403800004A009C009C00990080250000F2
:1006D0007200EC00EC00E900C0120000E900DA0151
:1006E000DA01D70160090000D701B603B603B303EE
:1006F000B0040000B3036E076E076B0758020000DA
:100700006E07DC0EDC0ED80E2C010000DC0EC11DC5
:10071000C11DBE1D00000000240027002A000000AB
:100720000000250028002B00000000002300260008
:100730002900040404040404040402020202020264
:100740000303030303030102040810204080010295
:100750000408102001020408102000000007000215
:100760000100000304060000000000000000B508BE
:10077000A710AE0811241FBECFEFD8E0DEBFCDBF5B
:1007800013E0A0E0B1E0EEE1F9E202C005900D92C5
:10079000A63FB107D9F715E0A6EFB3E001C01D925F
:1007A000A633B107E1F717E0C2E7D7E004C022970C
:1007B000FE010E947E14CE36D107C9F70E94FD10BB
:1007C0000C9482140C940000FB01DC0102C0019027
:1007D0000D9241505040D8F70895FB01DC01019083
:1007E0000D920020E1F70895FB01DC0141505040DB
:1007F00048F001900D920020C9F701C01D924150B0
:100800005040E0F70895FB019F01423074F04532FB
:1008100064F4642F77270E946814805D8A330CF09B
:10082000895D8193CB010097A1F71082C9010C94D7
:100830001904DC01FC01672F71917723E1F73297EE
:1008400004C07C916D9370836291AE17BF07C8F3AB
:1008500008958BE284B91AB88FEF8BB908950F937E
:100860001F93062F29982B9A2D9881E090E00E94E3
:10087000140E2D9A10E007FF02C02B9A01C02B988E
:100880002D9881E090E00E94140E2D9A1F5F183081
:1008900011F0000FF0CF299A1F910F9108950F9337
:1008A0001F93062F29982B982D9881E090E00E94A5
:1008B000140E2D9A10E007FF02C02B9A01C02B984E
:1008C0002D9881E090E00E94140E2D9A1F5F183041
:1008D00011F0000FF0CF299A1F910F9108952F92D8
:1008E0003F924F925F926F927F928F929F92AF92C0
:1008F000BF92CF92DF92EF92FF920F931F93DF93FD
:10090000CF93CDB7DEB72F970FB6F894DEBF0FBEEB
:10091000CDBF9F878E870B831C83ED82FE8273E899
:10092000872E912C821A930A92E8E92EF12CE41A70
:10093000F50AE8E6F0E06490262D30E03A8329835A
:1009400031967490472D50E03196E4914E2E552407
:10095000772767FD70956E517040469E1001479E47
:10096000300C569E300C112487E690E0280E391E7C
:10097000AE85BF858C914150504058874F83882366
:1009800009F47CC0CD0165E70E944F041E2D8E85C1
:100990009F856E2D0E942F041150170D8E859F8507
:1009A000612F0E942F048E859F8565E10E944F0470
:1009B000182D8E859F85682D0E942F041150160DCD
:1009C0008E859F85612F0E942F048E859F856CE503
:1009D0000E944F04CC24DD244AC0F101EC0DFD1D22
:1009E000E491AA24BB2400E86E2E772438C0802F1F
:1009F00090E086219721892B19F48D819E8102C078
:100A00008B819C817C01202F2695822F90E086216E
:100A10009721892B19F49D801E8102C09B801C8127
:100A2000022F0695B70184E0769567958A95E1F7E0
:100A30008E859F850E942F041F708E2D8295807F4A
:100A4000182B8E859F85612F0E942F048E859F8590
:100A5000692D0E942F04E2E0F0E0AE0EBF1E298156
:100A60003A81A216B30618F20894C11CD11C8F81DA
:100A700098858C199D0997FFB0CFACC02B813C8124
:100A8000C9018F709070B82EAA24C90180709F7020
:100A9000892F9927A82AB92A207F3070A22AB32A41
:100AA0002D813E81C9018F709070D82ECC24C90150
:100AB00080709F70892F9927C82AD92A207F30708B
:100AC000C22AD32A8E859F856BE20E944F041E2D79
:100AD0008E859F856E2D0E942F041150170D8E85D7
:100AE0009F85612F0E942F048E859F856AE20E9458
:100AF0004F04182D8E859F85682D0E942F0411505C
:100B0000160D8E859F85612F0E942F048E859F85EF
:100B10006CE20E944F04089441085108420C531C97
:100B200066247724AB86BC86CD862D2C4DC0F20181
:100B3000E619F709E4918824992401E04E2F50E04A
:100B40005A87498739C0802F90E0A985BA858A23C2
:100B50009B23892B11F4760101C07501202F220FF0
:100B6000822F90E0E985FA858E239F23892B19F443
:100B70003D84122D02C03B841C85022F000FB7015B
:100B8000E4E076956795EA95E1F78E859F850E946A
:100B90002F041F708E2D8295807F182B8E859F8548
:100BA000612F0E942F048E859F85632D0E942F0444
:100BB00022E030E0820E931E49815A818416950608
:100BC00010F20894611C711C8F8198858619970911
:100BD00097FFADCF2F960FB6F894DEBF0FBECDBFF7
:100BE000CF91DF911F910F91FF90EF90DF90CF9009
:100BF000BF90AF909F908F907F906F905F904F903D
:100C00003F902F9008952F923F924F925F926F9254
:100C10007F928F929F92AF92BF92CF92DF92EF928C
:100C2000FF920F931F93CF93DF931C014B016A0137
:100C300059012801370180E190E0C80ED91EE8E093
:100C4000F0E0AE0EBF1EE50117C0C101A6019E0176
:100C5000820173010E946F042896C438D1052CF0DC
:100C600080E190E0C80ED91EE5019CE7C916D104C9
:100C70003CF40894811C911CF4016081662329F7DF
:100C8000DF91CF911F910F91FF90EF90DF90CF9068
:100C9000BF90AF909F908F907F906F905F904F909C
:100CA0003F902F9008951F93CF93DF93EC01162F61
:100CB0008881813061F4CE0161E80E944F041F7386
:100CC000CE01612F0E942F04CE0163E009C088236A
:100CD00049F4CE0165E20E944F041F77CE01612FD7
:100CE0000E942F04DF91CF911F910895CF92DF9240
:100CF000EF92FF920F931F93CF93DF93EC017B0151
:100D000088818823D9F0CE0165E70E944F04CE0187
:100D100060E00E942F04CE0163E80E942F04CE0100
:100D200065E10E944F04CE0160E00E942F04CE01D5
:100D300063E80E942F04CE016CE51AC0CE016BE27D
:100D40000E944F04CE0160E00E942F04CE0163E8B0
:100D50000E942F04CE016AE20E944F04CE0160E09F
:100D60000E942F04CE0163E80E942F04CE016CE2A2
:100D70000E944F04C70124E0959587952A95E1F7D5
:100D8000C82E2F2D332727FD3A95C70114E0880F71
:100D9000991F1A95E1F7D22ED82A00E010E0CE0173
:100DA0006C2D0E942F04CE016D2D0E942F04CE01C8
:100DB0006E2D0E942F040F5F1F4F81E20438180729
:100DC00071F71092F6031092F703DF91CF911F9104
:100DD0000F91FF90EF90DF90CF9008951F93CF93E6
:100DE000DF93EC01142F68832D982B988AE090E014
:100DF0000E94140E299A8AE090E00E94140E28980E
:100E000068EC70E080E090E00E94BB0D289A68ECEE
:100E100070E080E090E00E94BB0D2D9A2B9A8AE052
:100E200090E00E94140E8881813009F055C0CE01F7
:100E30006AEC0E944F04CE016CE00E942F04CE01A8
:100E400060E20E942F04CE0160E00E942F04CE01D8
:100E50006BEB0E944F04CE0161E00E942F04CE0193
:100E600061ED0E944F04CE0164E90E944F04CE015F
:100E700060E20E944F04CE016FE00E942F04CE0179
:100E800067EA0E944F04CE016CEB0E944F04CE0132
:100E900063E00E942F04CE0160E00E942F04CE0187
:100EA00062E00E942F04CE0161E80E944F04CE014F
:100EB00060E20E942F04CE0163E00E942F04CE0165
:100EC00065E20E944F0464E670E080E090E00E94DA
:100ED000BB0DCE016FEA2DC0882369F5CE0161E11B
:100EE0000E944F04CE0163E00E944F04CE0169E2EC
:100EF0000E944F04CE016AE30E944F04CE0163E0DA
:100F00000E942F04CE0166E30E944F04112319F0C2
:100F1000CE0168E002C0CE0160E00E942F04CE0145
:100F200065E20E944F04CE0160E30E942F04CE01CF
:100F300060E00E944F04DF91CF911F910895CF92FE
:100F4000DF92EF92FF921F93CF93DF937C01162FD6
:100F50006A01DC01ED91FC91A081B1812D913C9160
:100F6000CF0160EFF9010995D701ED91FC91A081C6
:100F7000B1812D913C91CF0163E4F9010995D7012D
:100F8000ED91FC91A081B1812D913C91CF0169E758
:100F9000F9010995D701ED91FC91A081B1812D91C5
:100FA0003C91CF0169E0F9010995D701ED91FC91E0
:100FB000A081B1812D913C91CF0160E0F9010995AB
:100FC000D701ED91FC91A081B1812D913C91CF0190
:100FD00060E5F9010995D701ED91FC91A081B181FE
:100FE00010612D913C91CF01612FF9010995F70115
:100FF000C081D181C114D10481F0D6010D900020AF
:10100000E9F71197AC19BD09E881F9810280F381F4
:10101000E02DCE01B601AD010995D701ED91FC910E
:10102000A081B1812D913C91CF0160E0F90109953A
:10103000D701ED91FC91A081B1812D913C91CF011F
:1010400067EFF9010995DF91CF911F91FF90EF9024
:10105000DF90CF9008950E942E080895FC017183BF
:1010600060830895EF92FF920F931F938C01F42EEB
:10107000E22EDC01ED91FC91A081B18160692D919E
:101080003C91CF01F9010995D801ED91FC91A08126
:10109000B1812D913C91CF016F2DF9010995D801B6
:1010A000ED91FC91A081B1812D913C91CF016E2DEC
:1010B000F90109951F910F91FF90EF900895EF921C
:1010C000FF920F931F938C01F42EE22EDC01ED9121
:1010D000FC91A081B181606B2D913C91CF01F90110
:1010E0000995D801ED91FC91A081B1812D913C91A0
:1010F000CF016F2DF9010995D801ED91FC91A081E7
:10110000B1812D913C91CF016E2DF90109951F916F
:101110000F91FF90EF90089581309105A9F46F5FD2
:101120007F4FD9F488EF93E060E175E00E942B08CF
:101130008CEF93E00E9429048DEF93E067E046E096
:1011400020E00E94370D0895892B39F46F5F7F4F9F
:1011500021F48DEF93E00E94BE0B089580E090E0B3
:101160006FEF7FEF0E948C08089581E090E06FEFB1
:101170007FEF0E948C080895EF92FF920F931F93C8
:10118000DF93CF93CDB7DEB727970FB6F894DEBFC6
:101190000FBECDBF88EF93E060E041E42FE70E94EF
:1011A0005F0888EF93E060E045E02FE70E945F086A
:1011B0008091CD038F3F61F48DEF93E062E70E9451
:1011C000020C06C08DEF93E00E94C70B8093CD0305
:1011D0008DEF93E00E94E80B892BA1F78091190411
:1011E00090911A04892BB9F56091CD036F3F99F165
:1011F000623360F4E62FF0E0EE0FFF1FE759FC4F7B
:101200008081918190931A04809319048E010F5F5D
:101210001F4FC8014AE00E94E511C8016DE174E06A
:101220004EE150E020E030E00E943611C8010E94FB
:1012300017128CEF93E06DE174E040E050E020E0A5
:1012400030E000E01FE0F0EFEF2EF12C0E940306EB
:101250008FEF8093CD038091190490911A04892B0C
:1012600009F457C00E94AD0D20911B0430911C045D
:1012700040E050E0621B730B840B950B2091CE0372
:101280003091CF0340E050E0261737074807590751
:1012900008F03FC04091190450911A0488EF93E080
:1012A00060E00E949F0788EF93E060E04CE32FE34B
:1012B0000E9432086AEF70E080E090E00E94BB0D6F
:1012C00088EF93E060E04CE320E00E94320864E69F
:1012D00070E080E090E00E94BB0D60911904709175
:1012E0001A048CEF93E040E050E02EE130E00FE094
:1012F00010E0E0EFEE2EEFE0FE2E0E9403061092CB
:101300001A04109219040E94AD0D7093CF036093DC
:10131000CE0327960FB6F894DEBF0FBECDBFCF9198
:10132000DF911F910F91FF90EF9008950F931F93FE
:1013300080E195E042E15AE760E070E00E94760FBC
:101340008DEF93E040E056E960E070E00E94CC0A47
:101350000CEF13E0C80160E070E040E00E94EE0690
:10136000C80160EC0E945306C80160EF70E00E9463
:10137000760660ED77E080E090E00E94BB0D08EF1C
:1013800013E04091770350917803C80160E00E9418
:101390009F07C80160E04CE32FE30E9432086AEF28
:1013A00070E080E090E00E94BB0DC80160E04CE37B
:1013B00020E00E94320864E670E080E090E00E9445
:1013C000BB0D1F910F9108950F931F93CF93DF9340
:1013D000FC01738D76957170A685B7859585772309
:1013E00029F08C91892309F454C004C08C9189237D
:1013F00009F04FC08389948920E001972FEF8F3F38
:101400009207D9F7C589D689A685B785158560E085
:1014100031E040E050E000E0CE01202F01972FEFB7
:101420008F3F9207D9F78C91812311F0632B03C072
:10143000832F80956823330F4F5F5F4F48305105EE
:1014400059F78789908D20E001972FEF8F3F920702
:10145000D9F77111609580917D0420917E0490E010
:1014600001968F73907030E08217930779F0E091C6
:101470007D04F0E0E35CFB4F608380917D0490E0AD
:1014800001968F73907080937D0403C0838D81607B
:10149000838FDF91CF911F910F9108951F920F922B
:1014A0000FB60F9211242F933F934F935F936F9337
:1014B0007F938F939F93AF93BF93EF93FF9380910D
:1014C0003B0490913C04009711F00E94E409FF91C5
:1014D000EF91BF91AF919F918F917F916F915F91AC
:1014E0004F913F912F910F900FBE0F901F90189525
:1014F0001F920F920FB60F9211242F933F934F9389
:101500005F936F937F938F939F93AF93BF93EF936B
:10151000FF9380913B0490913C04009711F00E944E
:10152000E409FF91EF91BF91AF919F918F917F91CE
:101530006F915F914F913F912F910F900FBE0F9040
:101540001F9018951F920F920FB60F9211242F9390
:101550003F934F935F936F937F938F939F93AF933B
:10156000BF93EF93FF9380913B0490913C040097CD
:1015700011F00E94E409FF91EF91BF91AF919F910B
:101580008F917F916F915F914F913F912F910F902C
:101590000FBE0F901F901895CF92DF92EF92FF929F
:1015A0000F931F93CF93DF93EC017A018B011A8E77
:1015B000198E188E1F8A1E8A1D8A1C8A1B8A20E09B
:1015C00030E06901CC0CDD1CC20ED31EB601660FE3
:1015D000771F660F771FAB014858594FFA01859165
:1015E0009591A591B4918E159F05A007B107E9F4D7
:1015F000FB01E458F94F859194919C8B8B8BFB01F7
:10160000E258F94F859194919E8B8D8BFB01E058A8
:10161000F94F85919491988F8F8BFB01EE57F94F7D
:10162000859194919A8F898F06C02F5F3F4F2D30FF
:10163000310509F0C6CF8F89988D892B09F449C0EF
:101640004C85463108F03DC090916800483010F458
:1016500084E005C04E3010F082E001C081E0892BAB
:1016600080936800483028F4EDE6F0E0ADE6B0E0A5
:101670000BC04E3028F0ECE6F0E0ACE6B0E004C081
:10168000EBE6F0E0ABE6B0E05081483040F481E0BA
:1016900090E002C0880F991F4A95E2F710C0242FEE
:1016A00030E04E3018F42850304002C02E50304008
:1016B00081E090E002C0880F991F2A95E2F7852B00
:1016C0008C93898D9A8D20E001972FEF8F3F9207A1
:1016D000D9F780913B0490913C048C179D0781F0D1
:1016E0008B8D8E7F8B8F9FB7F89410927D048091A5
:1016F0007D0480937E04D0933C04C0933B049FBF41
:10170000DF91CF911F910F91FF90EF90DF90CF90DD
:101710000895FC014485463180F5483028F4EDE613
:10172000F0E0ADE6B0E00BC04E3028F4EBE6F0E0C0
:10173000ABE6B0E004C0ECE6F0E0ACE6B0E050812F
:10174000483040F481E090E002C0880F991F4A952C
:10175000E2F710C0242F30E04E3018F4285030400B
:1017600002C02E50304081E090E002C0880F991FE7
:101770002A95E2F7809585238C930895FC018AEDE4
:1017800093E091838083CF010E94890B089520917B
:101790003B0430913C042817390731F490917E04C2
:1017A00080917D04981719F42FEF3FEF0FC0E0915F
:1017B0007E04F0E0E35CFB4F208180917E0490E0AA
:1017C00001968F73907080937E0430E0C901089574
:1017D00020913B0430913C042817390719F020E090
:1017E00030E00EC080917D0420917E0490E0805C0A
:1017F0009F4F821B910960E470E00E9433149C01AA
:10180000C90108950F931F93DC0159968D919C9106
:101810005A97892B49F481E090E013969C938E931C
:10182000129720E030E097C00FB7F8945B968C9148
:101830005B975196ED91FC91529750962C91509751
:1018400081FF8DC08081822B808359968D919C91E0
:101850005A97059620E001972FEF8F3F9207D9F70F
:101860005B968C915B9781FF35C031E040E050E0A2
:1018700070E010E0832F90E0862397235196ED913E
:10188000FC91529750962C915097892B29F080818A
:1018900020952823208303C08081822B8083599642
:1018A0008D919C915A97212F01972FEF8F3F92078F
:1018B000D9F7330F4F5F5F4F48305105D9F6519636
:1018C000ED91FC915297908150968C915097809514
:1018D000892333C031E040E050E070E010E0832F16
:1018E00090E0862397235196ED91FC915297509664
:1018F0002C915097892B21F08081822B808304C00A
:10190000808120952823208359968D919C915A9708
:10191000212F01972FEF8F3F9207D9F7330F4F5F9A
:101920005F4F48305105D9F65196ED91FC91529791
:10193000808150969C915097892B80830FBF599638
:101940008D919C915A9720E001972FEF8F3F92073E
:10195000D9F721E030E0C9011F910F9108958081EE
:1019600020952823208371CF20913B0430913C04A3
:101970002817390749F49FB7F89410927D04809195
:101980007D0480937E049FBF089520913B04309195
:101990003C042817390731F490917E0480917D042E
:1019A000981719F42FEF3FEF0AC0E0917E04F0E0A2
:1019B000E35CFB4F8081282F332727FD3095C90139
:1019C00008951F93CF93DF93EC01162F862F60E0CD
:1019D0000E94590E8B8D81FD04C0812F61E00E9411
:1019E000980E1C87212F30E0C9018A5B984FFC01BB
:1019F00084918D872E5C384FF9016491E62FF0E0D9
:101A0000EE0FFF1FE85DF84F859194919F878E87B9
:101A1000DF91CF911F910895FF920F931F938C0137
:101A2000F62E862F61E00E94590E8F2D61E00E94F4
:101A3000980E8F2D90E0FC01EA5BF84FE491D801FD
:101A40005096EC9350978E5C984FFC016491E62F72
:101A5000F0E0EE0FFF1FE25EF84F859194915296F1
:101A60009C938E9351971F910F91FF900895FF9231
:101A70000F931F938C01F62EFC011382128288EEC5
:101A800093E0A0E0B0E084839583A683B7838AEDDA
:101A900093E091838083148A138A168A158A108EA4
:101AA000178A128E118E838D2170220F8C7F822BCC
:101AB000838FC801642F0E940C0DC8016F2D0E94F6
:101AC000E10C1F910F91FF9008951F920F920FB696
:101AD0000F9211242F933F938F939F93AF93BF93B4
:101AE0008091830490918404A0918504B091860430
:101AF000309187040196A11DB11D232F2D5F2D3735
:101B000020F02D570196A11DB11D209387048093CD
:101B1000830490938404A0938504B09386048091F9
:101B20007F0490918004A0918104B0918204019679
:101B3000A11DB11D80937F0490938004A093810424
:101B4000B0938204BF91AF919F918F913F912F915C
:101B50000F900FBE0F901F9018958FB7F89420919B
:101B600083043091840440918504509186048FBF92
:101B7000B901CA0108959B01AC017FB7F894809127
:101B80007F0490918004A0918104B091820466B595
:101B9000A89B05C06F3F19F00196A11DB11D7FBF25
:101BA000BA2FA92F982F8827860F911DA11DB11D2F
:101BB00062E0880F991FAA1FBB1F6A95D1F7BC016D
:101BC0002DC0FFB7F89480917F0490918004A0917C
:101BD0008104B0918204E6B5A89B05C0EF3F19F0DF
:101BE0000196A11DB11DFFBFBA2FA92F982F8827DD
:101BF0008E0F911DA11DB11DE2E0880F991FAA1F34
:101C0000BB1FEA95D1F7861B970B885E9340C8F2FD
:101C1000215030404040504068517C4F21153105E3
:101C20004105510571F60895019739F0880F991F04
:101C3000880F991F02970197F1F70895789484B55A
:101C4000826084BD84B5816084BD85B5826085BDB8
:101C500085B5816085BDEEE6F0E08081816080839E
:101C6000E1E8F0E010828081826080838081816081
:101C70008083E0E8F0E0808181608083E1EBF0E048
:101C8000808184608083E0EBF0E0808181608083EC
:101C9000EAE7F0E0808184608083808182608083D5
:101CA0008081816080838081806880831092C10000
:101CB0000895CF93DF93482F50E0CA018A5B984F75
:101CC000FC0134914E5C584FFA018491882369F1EC
:101CD00090E0880F991FFC01EC5EF84FA591B4913C
:101CE000FC01E25EF84FC591D491662351F42FB701
:101CF000F8948C91932F909589238C9388818923D4
:101D00000BC0623061F42FB7F8948C91932F9095AB
:101D100089238C938881832B88832FBF06C09FB72C
:101D2000F8948C91832B8C939FBFDF91CF91089572
:101D3000482F50E0CA01865A984FFC012491CA01ED
:101D40008A5B984FFC0194914E5C584FFA01349194
:101D5000332309F440C0222351F1233071F02430A1
:101D600028F42130A1F0223011F514C02630B1F052
:101D70002730C1F02430D9F404C0809180008F77DF
:101D800003C0809180008F7D8093800010C084B557
:101D90008F7702C084B58F7D84BD09C08091B0006B
:101DA0008F7703C08091B0008F7D8093B000E32FC8
:101DB000F0E0EE0FFF1FE25EF84FA591B4912FB750
:101DC000F894662321F48C919095892302C08C911C
:101DD000892B8C932FBF089508951F920F920FB6F1
:101DE0000F9211242F933F934F938F939F93EF93D1
:101DF000FF938091C00082FD1DC04091C6002091DC
:101E0000C8043091C9042F5F3F4F2F733070809109
:101E1000CA049091CB042817390771F0E091C804E7
:101E2000F091C904E857FB4F40833093C9042093D5
:101E3000C80402C08091C600FF91EF919F918F91DD
:101E40004F913F912F910F900FBE0F901F901895BB
:101E5000E0911C05F0911D05E05CFF4F819191918F
:101E600020813181821B930B8F739070892B11F02D
:101E70000E94EC0E08951F920F920FB60F9211243C
:101E80002F933F938F939F93EF93FF9320910C0594
:101E900030910D0580910E0590910F052817390797
:101EA00031F48091C1008F7D8093C10014C0E09116
:101EB0000E05F0910F05E453FB4F208180910E0534
:101EC00090910F0501968F73907090930F058093FA
:101ED0000E052093C600FF91EF919F918F913F9146
:101EE0002F910F900FBE0F901F901895AF92BF9239
:101EF000DF92EF92FF920F931F93CF93DF93EC014A
:101F00007A018B01DD24403081EE580780E06807BC
:101F100080E0780711F0DD24D39491E0A92EB12C54
:101F2000EC89FD89DD2069F0C50108A002C0880F99
:101F3000991F0A94E2F7808360E079E08DE390E0F6
:101F400005C0108260E874E88EE190E0A801970176
:101F50000E944614215030404040504056954795CD
:101F60003795279580E12030380720F0DD2011F0EB
:101F7000DD24D6CFE889F9893083EA89FB8920837B
:101F800019A2EE89FF89408121E030E0C9010C8C63
:101F900002C0880F991F0A94E2F7482B4083EE890C
:101FA000FF894081C9010D8C02C0880F991F0A94D6
:101FB000E2F7482B4083EE89FF894081C9010E8CEE
:101FC00002C0880F991F0A94E2F7482B4083EE89DC
:101FD000FF8980810F8C02C0220F331F0A94E2F721
:101FE000209528232083DF91CF911F910F91FF909F
:101FF000EF90DF90BF90AF900895DC011C96ED91BB
:10200000FC911D97E05CFF4F21913191808191817E
:10201000281B390B2F733070C9010895DC011C9601
:10202000ED91FC911D97E05CFF4F20813181E054E0
:10203000F040DF01AE5BBF4F8D919C911197281747
:10204000390719F42FEF3FEF07C08D919C91E80FEE
:10205000F91F8081282F30E0C9010895DC011C960A
:10206000ED91FC911D97E05CFF4F20813181E054A0
:10207000F040DF01AE5BBF4F8D919C911197281707
:10208000390719F42FEF3FEF10C08D919C911197F4
:10209000E80FF91F20818D919C91119701968F7304
:1020A000907011969C938E9330E0C9010895DC01E5
:1020B00091968C919197882339F05496ED91FC91EB
:1020C0005597808186FFF9CF91961C920895CF9302
:1020D000DF93EC01EE85FF85E05CFF4F20813181CD
:1020E000E054F0402F5F3F4F2F733070DF01AE5B45
:1020F000BF4F8D919C91119728173907D1F3E05C60
:10210000FF4F80819181E054F040E80FF91F608318
:10211000EE85FF85E05CFF4F31832083EE89FF89E8
:10212000208181E090E00F8C02C0880F991F0A94F3
:10213000E2F7282B208381E089A3EC89FD89808147
:102140008064808381E090E0DF91CF9108951092C8
:1021500013051092120588EE93E0A0E0B0E08093A2
:10216000140590931505A0931605B09317058AEEF4
:1021700093E0909311058093100588E894E0909384
:102180001D0580931C058CEC94E090931F058093B3
:102190001E0585EC90E0909321058093200584EC4A
:1021A00090E0909323058093220580EC90E090933B
:1021B00025058093240581EC90E09093270580937A
:1021C000260582EC90E0909329058093280586EC03
:1021D00090E090932B0580932A0584E080932C0552
:1021E00083E080932D0587E080932E0585E0809322
:1021F0002F0581E0809330050895CF93DF930E94EF
:102200001E0E0E949609C8E2DFE00E94BC082097DB
:10221000E1F30E94280FF9CFCF92DF92EF92FF9265
:102220000F931F93CF93DF937C016B018A01C0E072
:10223000D0E00FC0D6016D916D01D701ED91FC91F9
:102240000190F081E02DC7010995C80FD91F0150F9
:1022500010400115110571F7CE01DF91CF911F914B
:102260000F91FF90EF90DF90CF9008950F931F9301
:10227000CF93DF93FC018B0141155105F9F06115F6
:102280007105E1F0848195812817390718F0FB0169
:10229000108214C041505040EC01C21BD30B4C17AC
:1022A0005D0708F4EA0160817181620F731FC80144
:1022B000AE010E94F403C00FD11F1882DF91CF91AD
:1022C0001F910F9108950F931F93CF93DF93EC010C
:1022D0008B016F5F7F4F888199810E945213009715
:1022E00011F480E005C0998388831B830A8381E011
:1022F000DF91CF911F910F910895CF93DF93EC0160
:1023000088819981892B29F08A819B81861797077B
:1023100060F4CE010E946311882341F08C819D817D
:10232000892B19F4E881F981108281E0DF91CF9146
:102330000895CF93DF93EC0188819981009711F084
:102340000E94BA12198218821D821C821B821A8274
:10235000DF91CF910895EF92FF920F931F93CF9348
:10236000DF93EC017B018A01BA010E947D11882371
:1023700021F4CE010E94991107C01D830C8388812E
:102380009981B7010E94ED03CE01DF91CF911F919A
:102390000F91FF90EF9008950F931F93182F092F1F
:1023A0006115710559F0DB010D900020E9F71197D7
:1023B000A61BB70BAD010E94AB1102C00E94991180
:1023C000812F902F1F910F910895EF92FF920F93FD
:1023D0001F93DF93CF93CDB7DEB729970FB6F8944D
:1023E000DEBF0FBECDBF8C01862FF8011182108297
:1023F0001382128215821482168290E07E01089464
:10240000E11CF11CB70150E00E940304C801B701B0
:102410000E94CC1129960FB6F894DEBF0FBECDBF37
:10242000CF91DF911F910F91FF90EF900895FC01E4
:10243000808191810E94BA1208950F931F93CF93C8
:10244000DF93BC018230910510F462E070E0E0910E
:102450003405F091350540E050E0A0E0B0E024C044
:102460008081918186179707D0F08617970771F4BE
:1024700082819381109729F013969C938E931297E3
:102480002CC0909335058093340527C04115510524
:1024900019F08417950718F48D01AC01EF01DF01E5
:1024A000828193819C01F9013097D1F64115510544
:1024B000F9F0CA01861B970B8430910580F48A815C
:1024C0009B810115110521F0F8019383828304C0DB
:1024D0009093350580933405FE01329645C0FE0188
:1024E000E80FF91F619371930297998388833CC029
:1024F0008091320590913305892B41F48091D2036C
:102500009091D30390933305809332054091D40387
:102510005091D5034115510541F44DB75EB78091F7
:10252000D0039091D103481B590B20913205309173
:10253000330524173507B0F4CA01821B930B8617A5
:10254000970780F0AB014E5F5F4F8417950750F0FF
:10255000420F531F5093330540933205F9016193A5
:10256000719302C0E0E0F0E0CF01DF91CF911F91C5
:102570000F910895CF93DF939C01009709F48FC0CA
:10258000EC0122971B821A82609134057091350507
:102590006115710581F488819981820F931F2091C3
:1025A0003205309133052817390739F5D0933305B3
:1025B000C093320574C0DB0140E050E0AC17BD07AA
:1025C00008F1BB83AA83FE0121913191E20FF31F31
:1025D000AE17BF0779F48D919C911197280F391F81
:1025E0002E5F3F4F3983288312968D919C911397CC
:1025F0009B838A834115510571F4D0933505C093AF
:1026000034054DC012968D919C911397AD010097A2
:1026100011F0DC01D3CFDA011396DC93CE9312973D
:10262000FA0121913191E20FF31FCE17DF0769F410
:1026300088819981280F391F2E5F3F4FFA0131831E
:1026400020838A819B8193838283E0E0F0E0DB0139
:1026500012968D919C911397009719F0BC01FD0182
:10266000F6CFAB014E5F5F4FDB018D919C91840FE4
:10267000951F20913205309133052817390779F4D9
:10268000309729F4109235051092340502C0138258
:102690001282425050405093330540933205DF91EF
:1026A000CF9108956F927F928F929F92AF92BF9237
:1026B000CF92DF92EF92FF920F931F93CF93DF930E
:1026C0008C01009729F4CB010E941D128C01BBC024
:1026D0008EEFE82E8FEFF82EE00EF11E4801860EE9
:1026E000971E8E149F0408F4ACC0D7014D915C91E5
:1026F000119746175707B8F04530510508F4A3C0A5
:10270000CA0104978617970708F49DC042505040AD
:10271000461B570BF401419351936D937C93CF016A
:102720000E94BA1290C05B01A41AB50A3801640E67
:10273000751EA0913405B0913505E0E0F0E0CC24A1
:10274000DD2447C0A615B705A9F5CD91DC911197F9
:10275000CE0102968A159B0568F1CE018A199B0964
:10276000029612962C91129713963C91059758F069
:10277000F40122833383CA19DB09D183C083D701D3
:102780006D937C9309C04E5F5F4F4C0F5D1FF70147
:1027900051834083C901FC01C114D10431F0D60139
:1027A0001396FC93EE9312974EC0F0933505E09389
:1027B000340549C08D919C911197E817F90708F4E9
:1027C000FC016D0112968C91129713969C919C01BD
:1027D000D901109709F0B6CF809132059091330559
:1027E00086159705E9F4E617F707D0F42091D4038E
:1027F0003091D5032115310541F42DB73EB78091B5
:10280000D0039091D103281B390B82169306C8F48C
:102810009092330580923205F7017183608313C073
:10282000CB010E941D12EC01009759F0D7014D9188
:102830005C91B8010E94E403C8010E94BA128E01A3
:1028400002C000E010E0C801DF91CF911F910F910D
:10285000FF90EF90DF90CF90BF90AF909F908F90C0
:102860007F906F90089597FB092E07260AD077FD79
:1028700004D02ED006D000201AF4709561957F4FB9
:102880000895F6F7909581959F4F0895A1E21A2E2D
:10289000AA1BBB1BFD010DC0AA1FBB1FEE1FFF1F04
:1028A000A217B307E407F50720F0A21BB30BE40B54
:1028B000F50B661F771F881F991F1A9469F760959B
:1028C0007095809590959B01AC01BD01CF01089555
:1028D000AA1BBB1B51E107C0AA1FBB1FA617B70746
:1028E00010F0A61BB70B881F991F5A95A9F7809562
:1028F0009095BC01CD010895EE0FFF1F0590F49156
:10290000E02D099417E0C2E7D7E004C0FE010E9461
:0E2910007E142296C437D107C9F7F894FFCF82
:10291E00610069004D0065006F006B2061006B2740
:10292E002069006B204D006B2065006B206F0073DB
:10293E002061005320690073204D007320650073E1
:10294E00206F007420610074532069007473204D51
:10295E00007420650074206F006E2061004A2069AB
:10296E00006E204D006E2065006E206F00682061A5
:10297E000043206900705C204D00682065006820CF
:10298E006F006D2061006D272069006D204D006D78
:10299E002065006D206F006A206100006A204D00E6
:1029AE006A206F0034206100342720690034204DE6
:1029BE00003420650034206F007720610077206995
:1029CE000077206500672061006727206900672077
:1029DE004D006720650067206F00647A20610064F7
:1029EE005A206900647A204D00647A206500647A6A
:1029FE00206F00642061006420650064206F006217
:102A0E00206100622720690062204D00622065006F
:102A1E0062206F0070206100702720690070204DC9
:102A2E00007020650070206F007473206100705C70
:102A3E002061007320690074732069007427206977
:102A4E0000705C2720690074204D006A2065006BC1
:102A5E002720650053206500745320650074732091
:102A6E00650074272065004A2065004320650070CC
:102A7E005C2065006D2720650034272065007720D7
:102A8E006F007473206F00705C206F006B272061E5
:102A9E000053206100745320610074272061004AA6
:102AAE0020610043206100705C272061006D2720AB
:102ABE00610034272061006B27204D0053204D000C
:102ACE007453204D007427204D004A204D004320A2
:102ADE004D00705C27204D006D27204D00342720BF
:102AEE004D006B27206F0053206F007453206F0032
:102AFE007427206F004A206F0043206F006D27203F
:102B0E006F003427206F006727206500647A2069E4
:102B1E0000645A2065006427206900642720650040
:102B2E0064204D0062272065004E27206100672734
:102B3E00204D004E27206F00645A206100645A20F9
:102B4E004D00645A206F0064272061006427204DD9
:102B5E00006427206F0062272061006227204D004D
:102B6E006227206F0070272065007027206100709B
:102B7E0027204D007027206F00000102010401067E
:102B8E000108010A010E01130117011B011F012388
:102B9E000127012B012F01330137013C0141014572
:102BAE000149014D015101550159015D0161016557
:102BBE00016A016E01720176017B017F018301873B
:102BCE00018B018C018B019001940198019D01A153
:102BDE0001A501A901AD018B01B1010801FFE803B7
:102BEE0080003605000000000000020C0C11E80BFE
:102BFE00C70BC50CB40C0000000067100C11FD0FC4
:062C0E002E100E105710FD
:00000001FF
