:100000000C9436000C945E000C945E000C945E0020
:100010000C945E000C945E000C945E000C945E00E8
:100020000C945E000C945E000C945E000C945E00D8
:100030000C945E000C945E000C945E000C945E00C8
:100040000C9455030C945E000C943C040C948A04AC
:100050000C945E000C945E000C945E000C945E00A8
:100060000C945E000C945E00DF02F60511241FBEA6
:10007000CFEFD8E0DEBFCDBF13E0A0E0B1E0EEE50A
:10008000FDE002C005900D92AE3DB107D9F714E036
:10009000AEEDB3E001C01D92A839B107E1F710E061
:1000A000CCE6D0E004C02297FE010E94A906C83623
:1000B000D107C9F70E944C060C94AD060C940000C1
:1000C0008BE284B91AB88FEF8BB908950F931F9301
:1000D000062F29982B9A2D9881E090E00E94F60334
:1000E0002D9A10E007FF02C02B9A01C02B982D9883
:1000F00081E090E00E94F6032D9A1F5F183011F006
:10010000000FF0CF299A1F910F9108950F931F931D
:10011000062F29982B982D9881E090E00E94F603F5
:100120002D9A10E007FF02C02B9A01C02B982D9842
:1001300081E090E00E94F6032D9A1F5F183011F0C5
:10014000000FF0CF299A1F910F9108951F93CF931D
:10015000DF93EC01162F8881813061F4CE0161E8D4
:100160000E9486001F73CE01612F0E946600CE019F
:1001700063E009C0882349F4CE0165E20E9486004D
:100180001F77CE01612F0E946600DF91CF911F91F2
:100190000895CF92DF92EF92FF920F931F93CF9328
:1001A000DF93EC017B0188818823D9F0CE0165E7DC
:1001B0000E948600CE0160E00E946600CE0163E8E6
:1001C0000E946600CE0165E10E948600CE0160E0DB
:1001D0000E946600CE0163E80E946600CE016CE5D5
:1001E0001AC0CE016BE20E948600CE0160E00E9440
:1001F0006600CE0163E80E946600CE016AE20E94BA
:100200008600CE0160E00E946600CE0163E80E9495
:100210006600CE016CE20E948600C70124E095953D
:1002200087952A95E1F7C82E2F2D332727FD3A957C
:10023000C70114E0880F991F1A95E1F7D22ED82A2A
:1002400000E010E0CE016C2D0E946600CE016D2D05
:100250000E946600CE016E2D0E9466000F5F1F4F48
:1002600081E20438180771F71092DE031092DF0361
:10027000DF91CF911F910F91FF90EF90DF90CF9082
:1002800008951F93CF93DF93EC01142F68832D986B
:100290002B988AE090E00E94F603299A8AE090E089
:1002A0000E94F603289868EC70E080E090E00E94DD
:1002B0009D03289A68EC70E080E090E00E949D0326
:1002C0002D9A2B9A8AE090E00E94F6038881813073
:1002D00009F055C0CE016AEC0E948600CE016CE0A8
:1002E0000E946600CE0160E20E946600CE0160E0DE
:1002F0000E946600CE016BEB0E948600CE0161E099
:100300000E946600CE0161ED0E948600CE0164E984
:100310000E948600CE0160E20E948600CE016FE05E
:100320000E946600CE0167EA0E948600CE016CEB57
:100330000E948600CE0163E00E946600CE0160E06C
:100340000E946600CE0162E00E946600CE0161E874
:100350000E948600CE0160E20E946600CE0163E04A
:100360000E946600CE0165E20E94860064E670E0AD
:1003700080E090E00E949D03CE016FEA2DC08823AB
:1003800069F5CE0161E10E948600CE0163E00E9422
:100390008600CE0169E20E948600CE016AE30E94D7
:1003A0008600CE0163E00E946600CE0166E30E94F3
:1003B0008600112319F0CE0168E002C0CE0160E092
:1003C0000E946600CE0165E20E948600CE0160E3D5
:1003D0000E946600CE0160E00E948600DF91CF910E
:1003E0001F910895CF92DF92EF92FF921F93CF93C8
:1003F000DF937C01162F6A01DC01ED91FC91A08155
:10040000B1812D913C91CF0160EFF9010995D701A0
:10041000ED91FC91A081B1812D913C91CF0163E4DC
:10042000F9010995D701ED91FC91A081B1812D9140
:100430003C91CF0169E7F9010995D701ED91FC9154
:10044000A081B1812D913C91CF0169E0F90109951D
:10045000D701ED91FC91A081B1812D913C91CF010B
:1004600060E0F9010995D701ED91FC91A081B1817E
:100470002D913C91CF0160E5F9010995D701ED91EE
:10048000FC91A081B18110612D913C91CF01612F30
:10049000F9010995F701C081D181C114D10481F01E
:1004A000D6010D900020E9F71197AC19BD09E8813C
:1004B000F9810280F381E02DCE01B601AD010995ED
:1004C000D701ED91FC91A081B1812D913C91CF019B
:1004D00060E0F9010995D701ED91FC91A081B1810E
:1004E0002D913C91CF0167EFF9010995DF91CF91F3
:1004F0001F91FF90EF90DF90CF9008950E948102AE
:100500000895FC01718360830895EF92FF920F9329
:100510001F938C01F42EE22EDC01ED91FC91A08161
:10052000B18160692D913C91CF01F9010995D80104
:10053000ED91FC91A081B1812D913C91CF016F2D66
:10054000F9010995D801ED91FC91A081B1812D911E
:100550003C91CF016E2DF90109951F910F91FF90EC
:10056000EF900895EF92FF920F931F938C01F42E5A
:10057000E22EDC01ED91FC91A081B181606B2D91A7
:100580003C91CF01F9010995D801ED91FC91A08131
:10059000B1812D913C91CF016F2DF9010995D801C1
:1005A000ED91FC91A081B1812D913C91CF016E2DF7
:1005B000F90109951F910F91FF90EF90089580EE3A
:1005C00093E066E774E00E947E0284EE93E00E946E
:1005D000600008950F931F93CF93DF9380EE93E015
:1005E00060E041E42FE70E94B20280EE93E060E019
:1005F00045E02FE70E94B20200E010E02AC04991D6
:10060000599180EE93E060E00E94F20180EE93E069
:1006100060E04CE32FE30E9485026AEF70E080E027
:1006200090E00E949D0380EE93E060E04CE320E0C8
:100630000E94850264E670E080E090E00E949D03E5
:1006400083E0CD3CD807D9F60F5F1F4F0C30110562
:1006500019F0C9E6D3E0D3CFDF91CF911F910F916D
:1006600008950F931F9386E794E042E15AE760E014
:1006700070E00E94C50404EE13E0C80160E070E081
:1006800040E00E944101C80160EC0E94A600C80140
:1006900060EF70E00E94C90060ED77E080E090E0DC
:1006A0000E949D031F910F9108951F920F920FB604
:1006B0000F9211242F933F938F939F93AF93BF93E8
:1006C0008091E9039091EA03A091EB03B091EC03D0
:1006D0003091ED030196A11DB11D232F2D5F2D3704
:1006E00020F02D570196A11DB11D2093ED0380939D
:1006F000E9039093EA03A093EB03B093EC0380919A
:10070000E5039091E603A091E703B091E803019619
:10071000A11DB11D8093E5039093E603A093E70329
:10072000B093E803BF91AF919F918F913F912F912B
:100730000F900FBE0F901F9018959B01AC017FB7D3
:10074000F8948091E5039091E603A091E703B091BE
:10075000E80366B5A89B05C06F3F19F00196A11D7F
:10076000B11D7FBFBA2FA92F982F8827860F911D03
:10077000A11DB11D62E0880F991FAA1FBB1F6A95BA
:10078000D1F7BC012DC0FFB7F8948091E50390919B
:10079000E603A091E703B091E803E6B5A89B05C086
:1007A000EF3F19F00196A11DB11DFFBFBA2FA92F70
:1007B000982F88278E0F911DA11DB11DE2E0880F93
:1007C000991FAA1FBB1FEA95D1F7861B970B885E5E
:1007D0009340C8F2215030404040504068517C4F17
:1007E000211531054105510571F60895019739F03C
:1007F000880F991F880F991F02970197F1F70895A5
:10080000789484B5826084BD84B5816084BD85B5EB
:10081000826085BD85B5816085BDEEE6F0E08081B2
:1008200081608083E1E8F0E01082808182608083D3
:10083000808181608083E0E8F0E080818160808356
:10084000E1EBF0E0808184608083E0EBF0E0808188
:1008500081608083EAE7F0E080818460808380812A
:1008600082608083808181608083808180688083D2
:100870001092C100089508951F920F920FB60F9223
:1008800011242F933F934F938F939F93EF93FF9355
:100890008091C00082FD1DC04091C60020912E04B1
:1008A00030912F042F5F3F4F2F73307080913004B1
:1008B000909131042817390771F0E0912E04F091DE
:1008C0002F04E251FC4F408330932F0420932E04D9
:1008D00002C08091C600FF91EF919F918F914F913F
:1008E0003F912F910F900FBE0F901F901895E091A0
:1008F0008204F0918304E05CFF4F8191919120810B
:100900003181821B930B8F739070892B11F00E94A1
:100910003B0408951F920F920FB60F9211242F934C
:100920003F938F939F93EF93FF93209172043091A5
:10093000730480917404909175042817390731F479
:100940008091C1008F7D8093C10014C0E091740438
:10095000F0917504EE5CFB4F2081809174049091BE
:10096000750401968F73907090937504809374044E
:100970002093C600FF91EF919F918F913F912F910E
:100980000F900FBE0F901F901895AF92BF92DF92FD
:10099000EF92FF920F931F93CF93DF93EC017A01B5
:1009A0008B01DD24403081EE580780E0680780E04D
:1009B000780711F0DD24D39491E0A92EB12CEC89B5
:1009C000FD89DD2069F0C50108A002C0880F991FCC
:1009D0000A94E2F7808360E079E08DE390E005C05F
:1009E000108260E874E88EE190E0A80197010E940F
:1009F00085062150304040405040569547953795E8
:100A0000279580E12030380720F0DD2011F0DD242B
:100A1000D6CFE889F9893083EA89FB89208319A236
:100A2000EE89FF89408121E030E0C9010C8C02C0D1
:100A3000880F991F0A94E2F7482B4083EE89FF89BB
:100A40004081C9010D8C02C0880F991F0A94E2F7FA
:100A5000482B4083EE89FF894081C9010E8C02C07A
:100A6000880F991F0A94E2F7482B4083EE89FF898B
:100A700080810F8C02C0220F331F0A94E2F7209569
:100A800028232083DF91CF911F910F91FF90EF904A
:100A9000DF90BF90AF900895DC011C96ED91FC9122
:100AA0001D97E05CFF4F2191319180819181281B3E
:100AB000390B2F733070C9010895DC011C96ED913C
:100AC000FC911D97E05CFF4F20813181E054F040A4
:100AD000DF01AE5BBF4F8D919C91119728173907AD
:100AE00019F42FEF3FEF07C08D919C91E80FF91F8C
:100AF0008081282F30E0C9010895DC011C96ED911A
:100B0000FC911D97E05CFF4F20813181E054F04063
:100B1000DF01AE5BBF4F8D919C911197281739076C
:100B200019F42FEF3FEF10C08D919C911197E80FB2
:100B3000F91F20818D919C91119701968F73907070
:100B400011969C938E9330E0C9010895DC01919633
:100B50008C919197882339F05496ED91FC9155979B
:100B6000808186FFF9CF91961C920895CF93DF93F1
:100B7000EC01EE85FF85E05CFF4F20813181E05480
:100B8000F0402F5F3F4F2F733070DF01AE5BBF4FE0
:100B90008D919C91119728173907D1F3E05CFF4F95
:100BA00080819181E054F040E80FF91F6083EE8569
:100BB000FF85E05CFF4F31832083EE89FF89208130
:100BC00081E090E00F8C02C0880F991F0A94E2F731
:100BD000282B208381E089A3EC89FD8980818064B2
:100BE000808381E090E0DF91CF91089510927904A5
:100BF0001092780488EE93E0A0E0B0E080937A044D
:100C000090937B04A0937C04B0937D0481ED93E0EA
:100C100090937704809376048EEE93E09093830410
:100C20008093820482E394E090938504809384040B
:100C300085EC90E0909387048093860484EC90E0A8
:100C4000909389048093880480EC90E090938B04C7
:100C500080938A0481EC90E090938D0480938C04BF
:100C600082EC90E090938F0480938E0486EC90E069
:100C7000909391048093900484E08093920483E0A5
:100C80008093930487E08093940485E08093950497
:100C900081E0809396040895CF93DF930E9400042F
:100CA0000E943103C7E7D4E00E94EA022097E1F3F3
:100CB0000E947704F9CFCF92DF92EF92FF920F93C9
:100CC0001F93CF93DF937C016B018A01C0E0D0E0DA
:100CD0000FC0D6016D916D01D701ED91FC9101908E
:100CE000F081E02DC7010995C80FD91F01501040B0
:100CF0000115110571F7CE01DF91CF911F910F9171
:100D0000FF90EF90DF90CF900895A1E21A2EAA1BDA
:100D1000BB1BFD010DC0AA1FBB1FEE1FFF1FA217AB
:100D2000B307E407F50720F0A21BB30BE40BF50BA8
:100D3000661F771F881F991F1A9469F76095709531
:100D4000809590959B01AC01BD01CF010895EE0FF8
:0E0D5000FF1F0590F491E02D0994F894FFCF59
:100D5E00610069004D0065006F006B2061006B271C
:100D6E002069006B204D006B2065006B206F0073B7
:100D7E002061005320690073204D007320650073BD
:100D8E00206F007420610074532069007473204D2D
:100D9E00007420650074206F006E2061004A206987
:100DAE00006E204D006E2065006E206F0068206181
:100DBE000043206900705C204D00682065006820AB
:100DCE006F006D2061006D272069006D204D006D54
:100DDE002065006D206F006A206100006A204D00C2
:100DEE006A206F0034206100342720690034204DC2
:100DFE00003420650034206F007720610077206971
:100E0E000077206500672061006727206900672052
:100E1E004D006720650067206F00647A20610064D2
:100E2E005A206900647A204D00647A206500647A45
:100E3E00206F00642061006420650064206F0062F2
:100E4E00206100622720690062204D00622065004B
:100E5E0062206F0070206100702720690070204DA5
:100E6E00007020650070206F007473206100705C4C
:100E7E002061007320690074732069007427206953
:100E8E0000705C2720690074204D006A2065006B9D
:100E9E00272065005320650074532065007473206D
:100EAE00650074272065004A2065004320650070A8
:100EBE005C2065006D2720650034272065007720B3
:100ECE006F007473206F00705C206F006B272061C1
:100EDE000053206100745320610074272061004A82
:100EEE0020610043206100705C272061006D272087
:100EFE00610034272061006B27204D0053204D00E8
:100F0E007453204D007427204D004A204D0043207D
:100F1E004D00705C27204D006D27204D003427209A
:100F2E004D006B27206F0053206F007453206F000D
:100F3E007427206F004A206F0043206F006D27201A
:100F4E006F003427206F006727206500647A2069C0
:100F5E0000645A206500642720690064272065001C
:100F6E0064204D0062272065004E27206100672710
:100F7E00204D004E27206F00645A206100645A20D5
:100F8E004D00645A206F0064272061006427204DB5
:100F9E00006427206F0062272061006227204D0029
:100FAE006227206F00702720650070272061007077
:100FBE0027204D007027206F00000102010401065A
:100FCE000108010A010E01130117011B011F012364
:100FDE000127012B012F01330137013C014101454E
:100FEE000149014D015101550159015D0161016533
:100FFE00016A016E01720176017B017F0183018717
:10100E00018B018C018B019001940198019D01A12E
:10101E0001A501A901AD018B01B10108010000007C
:0E102E0000B6055B064C057D055D05A60500B8
:00000001FF
